S01C0000414D54495F4156525F496E746572666163696E672E73726563CC
S11300000C942A000C94C8000C943C000C943C0002
S11300100C943C000C943C000C943C000C943C006C
S11300200C943C000C941E010C940F010C940501DB
S11300300C943C000C943C000C943C000C943C004C
S11300400C943C000C943C000C943C000C943C003C
S11300500C943C0011241FBECFE5D8E0DEBFCDBF19
S113006020E0A0E6B0E001C01D92A136B207E1F79E
S11300700E94D7000C9442010C940000813031F1AD
S113008038F0823009F440C0833009F45AC076C095
S113009041110DC02AB381E090E002C0880F991F7E
S11300A06A95E2F7809582238ABB81E00895413006
S11300B009F066C02AB381E090E002C0880F991F5E
S11300C06A95E2F7822B8ABB81E0089541110DC045
S11300D027B381E090E002C0880F991F6A95E2F788
S11300E08095822387BB81E00895413009F04AC09E
S11300F027B381E090E002C0880F991F6A95E2F768
S1130100822B87BB81E0089541110DC024B381E0A7
S113011090E002C0880F991F6A95E2F780958223C8
S113012084BB81E00895413079F524B381E090E007
S113013002C0880F991F6A95E2F7822B84BB81E085
S1130140089541110DC021B381E090E002C0880FF1
S1130150991F6A95E2F78095822381BB81E0089517
S11301604130A1F421B381E090E002C0880F991FCF
S11301706A95E2F7822B81BB81E0089580E00895BF
S113018080E0089580E0089580E0089580E0089577
S11301901F920F920FB60F9211248F9381E08093D8
S11301A060008F910F900FBE0F901F90189585B52A
S11301B0806485BD85B5886085BD85B58F7E85BD28
S11301C085B5806285BD41E067E083E00E943E0022
S11301D08CE083BD85B5846085BD85B5826085BDB1
S11301E085B5816085BD95E02FEF34E38CE0215027
S11301F030408040E1F700C0000083B58F5F83BDCD
S113020083B5883289F793BDEFCF1F920F920FB653
S11302100F9211240F900FBE0F901F9018951F92EC
S11302200F920FB60F9211240F900FBE0F901F90D4
S113023018959BB381E089278BBB08951F920F9279
S11302400FB60F9211242F933F934F935F936F93A5
S11302507F938F939F93AF93BF93EF93FF930E94EA
S11302601901FF91EF91BF91AF919F918F917F9170
S11302706F915F914F913F912F910F900FBE0F900F
S10B02801F901895F894FFCFBC
S9030000FC
