:100000000C942A000C9439010C9447000C9447007E
:100010000C9447000C9447000C9447000C94470044
:100020000C9447000C944B020C943C020C9432024A
:100030000C9447000C9447000C9447000C94470024
:100040000C9447000C9447000C9447000C94470014
:100050000C94470011241FBECFE5D8E0DEBFCDBF12
:1000600010E0A0E6B0E0E2EEF4E002C005900D92F0
:10007000A036B107D9F720E0A0E6B0E001C01D929C
:10008000A136B207E1F70E94D2010C946F020C94E2
:100090000000813079F028F08230A9F08330E1F05F
:1000A00024C08AB3962F909589236423682B6ABB5A
:1000B00081E01CC087B3962F909589236423682B19
:1000C00067BB81E013C084B3962F90958923642386
:1000D000682B64BB81E00AC081B3962F9095892379
:1000E0006423682B61BB81E001C080E000000895BB
:1000F000813049F028F0823049F0833051F00CC053
:100100006BBB81E00AC068BB81E007C065BB81E0D2
:1001100004C062BB81E001C080E00000089581302E
:1001200031F138F0823009F440C0833009F45AC00C
:1001300076C041110DC02BB381E090E002C0880F62
:10014000991F6A95E2F7809582238BBB81E070C08E
:10015000413009F066C02BB381E090E002C0880F07
:10016000991F6A95E2F7822B8BBB81E061C0411138
:100170000DC028B381E090E002C0880F991F6A95F6
:10018000E2F78095822388BB81E052C0413009F0BC
:100190004AC028B381E090E002C0880F991F6A9599
:1001A000E2F7822B88BB81E043C041110DC025B32B
:1001B00081E090E002C0880F991F6A95E2F7809570
:1001C000822385BB81E034C0413079F525B381E0DD
:1001D00090E002C0880F991F6A95E2F7822B85BBD9
:1001E00081E026C041110DC022B381E090E002C041
:1001F000880F991F6A95E2F78095822382BB81E080
:1002000017C04130A1F422B381E090E002C0880F12
:10021000991F6A95E2F7822B82BB81E009C080E0DA
:1002200007C080E005C080E003C080E001C080E03E
:100230000000089511B88CE080B984E086BF08956D
:1002400084EA86BF06B607FEFDCF089584E986BF1F
:10025000089583B984E886BF06B607FEFDCF0895EA
:1002600024E826BF06B607FEFDCF23B1FC0120839C
:1002700008951F920F920FB60F9211248F9381E071
:10028000809360008F910F900FBE0F901F90189574
:1002900041E063E081E00E948F008FE39CE90197D9
:1002A000F1F700C0000040E063E081E00E948F00B1
:1002B0000895CF93C82F40E061E081E00E948F0055
:1002C0006BB38C2F807F6F70682B80E00E9478006A
:1002D0000E9448016BB320E1C29FC00111246F70DE
:1002E000682B80E00E9478000E944801CF91089519
:1002F0004EE06EE081E00E94490040EF60EF80E058
:100300000E94490083E30E94590182E30E9459013F
:1003100088E20E9459018CE00E94590186E00E9407
:10032000590181E00E9459010895CF93C82F41E0FF
:1003300061E081E00E948F006BB38C2F807F6F7033
:10034000682B80E00E9478000E9448016BB320E196
:10035000C29FC00111246F70682B80E00E9478005A
:100360000E944801CF910895CF93DF93EC018881DB
:10037000882331F021960E94950189918111FBCF4C
:10038000DF91CF910895813019F0823021F006C0BD
:100390008FE7860F04C08FEB860F01C080E80E94B4
:1003A00059010895CF93DF9300D000D0CDB7DEB7C9
:1003B0008AEA89831A821B821C820E9478010E9429
:1003C0001A010E94200180EA0E94290180E00E9417
:1003D000290187E70E9429010E9426012FEF83ED62
:1003E00090E3215080409040E1F700C000000E945F
:1003F000200180EA0E94290180E00E9429010E94D8
:10040000200181EA0E942901CE0101960E9430015B
:100410000E942601BE016E5F7F4F89810E941902F2
:1004200061E081E00E94C301CE0102960E94B40106
:10043000D5CFFB011282982F9F70292F30E02A30F0
:1004400031051CF0995C918302C0905D9183829587
:100450008F708A3018F0895C808302C0805D808351
:1004600081E008951F920F920FB60F9211240F9002
:100470000FBE0F901F9018951F920F920FB60F92FC
:1004800011240F900FBE0F901F9018959BB381E021
:1004900089278BBB08951F920F920FB60F921124DC
:1004A0002F933F934F935F936F937F938F939F937C
:1004B000AF93BF93EF93FF930E944602FF91EF919A
:1004C000BF91AF919F918F917F916F915F914F916C
:1004D0003F912F910F900FBE0F901F901895F89499
:0204E000FFCF4C
:00000001FF
