S01C0000414D54495F4156525F496E746572666163696E672E73726563CC
S11300000C942A000C94BC010C943C000C943C000D
S11300100C943C000C943C000C943C000C943C006C
S11300200C943C000C943C000C943C000C943C005C
S11300300C943C000C943C000C943C000C943C004C
S11300400C943C000C943C000C943C000C943C003C
S11300500C943C0011241FBECFE5D8E0DEBFCDBF19
S113006020E0A0E6B0E001C01D92A136B207E1F79E
S11300700E9455020C94AB020C940000379A3E9AED
S11300803F9886B1876086B90895CF93C82F40E022
S1130090682F80E00E94600087B1807ECF71C82BFA
S11300A0C7B9CF910895369A349BFECF84B190E0BE
S11300B0FB019183808325B1922B918380830895E2
S11300C0813031F138F0823009F440C0833009F4D2
S11300D05AC076C041110DC02AB381E090E002C03D
S11300E0880F991F6A95E2F7809582238ABB81E085
S11300F070C0413009F066C02AB381E090E002C0CC
S1130100880F991F6A95E2F7822B8ABB81E061C050
S113011041110DC027B381E090E002C0880F991F00
S11301206A95E2F78095822387BB81E052C0413013
S113013009F04AC027B381E090E002C0880F991FFC
S11301406A95E2F7822B87BB81E043C041110DC061
S113015024B381E090E002C0880F991F6A95E2F70A
S11301608095822384BB81E034C0413079F524B387
S113017081E090E002C0880F991F6A95E2F7822B14
S113018084BB81E026C041110DC021B381E090E021
S113019002C0880F991F6A95E2F78095822381BB7C
S11301A081E017C04130A1F421B381E090E002C0A6
S11301B0880F991F6A95E2F7822B81BB81E009C001
S11301C080E007C080E005C080E003C080E001C09B
S11301D080E000000895813079F028F08230A9F0A1
S11301E08330E1F024C08AB3962F90958923642349
S11301F0682B6ABB81E01CC087B3962F9095892336
S11302006423682B67BB81E013C084B3962F909559
S113021089236423682B64BB81E00AC081B3962FD1
S1130220909589236423682B61BB81E001C080E041
S113023000000895813049F028F0823049F083307D
S113024051F00CC06BBB81E00AC068BB81E007C001
S113025065BB81E004C062BB81E001C080E00000B6
S11302600895813031F138F0823009F440C0833090
S113027009F45AC076C041110DC02BB381E090E05F
S113028002C0880F991F6A95E2F7809582238BBB81
S113029081E070C0413009F066C02BB381E090E08A
S11302A002C0880F991F6A95E2F7822B8BBB81E00D
S11302B061C041110DC028B381E090E002C0880FF5
S11302C0991F6A95E2F78095822388BB81E052C02A
S11302D0413009F04AC028B381E090E002C0880FA1
S11302E0991F6A95E2F7822B88BB81E043C04111D4
S11302F00DC025B381E090E002C0880F991F6A9574
S1130300E2F78095822385BB81E034C0413079F5E2
S113031025B381E090E002C0880F991F6A95E2F747
S1130320822B85BB81E026C041110DC022B381E040
S113033090E002C0880F991F6A95E2F780958223A6
S113034082BB81E017C04130A1F422B381E090E088
S113035002C0880F991F6A95E2F7822B82BB81E065
S113036009C080E007C080E005C080E003C080E0F1
S113037001C080E0000008951F920F920FB60F9203
S113038011248F9381E0809360008F910F900FBEB2
S11303900F901F90189541E063E081E00E943101C5
S11303A08FE39CE90197F1F700C0000040E063E0AF
S11303B081E00E9431010895CF93C82F40E061E0AD
S11303C081E00E9431016BB38C2F807F6F70682BAA
S11303D080E00E941A010E94CB016BB320E1C29F0E
S11303E0C00111246F70682B80E00E941A010E94E2
S11303F0CB01CF9108954EE06EE081E00E94EB00C6
S113040040EF60EF80E00E94EB0083E30E94DC0198
S113041082E30E94DC0188E20E94DC018CE00E94FD
S1130420DC0186E00E94DC0181E00E94DC01089589
S1130430CF93C82F41E061E081E00E9431016BB3AA
S11304408C2F807F6F70682B80E00E941A010E94BD
S1130450CB016BB320E1C29FC00111246F70682BE4
S113046080E00E941A010E94CB01CF910895CF939E
S1130470DF93EC018881882331F021960E941802D1
S113048089918111FBCFDF91CF910895813019F0CB
S1130490823021F006C08FE7860F04C08FEB860FF1
S11304A001C080E80E94DC010895CF93DF9300D05F
S11304B000D000D0CDB7DEB71A8219821B821C820D
S11304C01D821E820E94FB010E943E0081E00E9468
S11304D04500BE016F5F7F4F80E00E94530061E0E2
S11304E081E00E944602BE016D5F7F4F8A810E94B7
S11304F08802CE0103960E943702BE016D5F7F4FD2
S113050089810E948802CE0103960E943702E1CFBE
S1130510FB01138299E2899F912D112492959F707A
S113052020E3290F208324E6929F801911249DEC57
S1130530899F912D112496959695969520E3290FE0
S11305402183990F292F220F220F920F891B805D7F
S10D0550828381E00895F894FFCF40
S9030000FC
