S01C0000414D54495F4156525F496E746572666163696E672E73726563CC
S11300000C942A000C946C000C943C000C943C005E
S11300100C943C000C943C000C943C000C943C006C
S11300200C943C000C943C000C943C000C949E00FA
S11300300C943C000C943C000C943C000C943C004C
S11300400C943C000C943C000C943C000C943C003C
S11300500C943C0011241FBECFE5D8E0DEBFCDBF19
S113006020E0A0E6B0E001C01D92A136B207E1F79E
S11300700E947B000C94AD000C940000813049F088
S113008028F0823049F0833051F00CC06ABB81E023
S11300900AC067BB81E007C064BB81E004C061BBE8
S11300A081E001C080E000000895813049F028F02B
S11300B0823049F0833051F00CC06BBB81E00AC040
S11300C068BB81E007C065BB81E004C062BB81E01E
S11300D001C080E0000008951F920F920FB60F92A6
S11300E011248F9381E0809360008F910F900FBE55
S11300F00F901F9018956FEF83E00E943E0060E020
S113010083E00E94550012BE83B78F7B83BF83B701
S1130110877F83BF83B7816083BF83B78D7F83BFAE
S113012083B7846083BF89B7816089BF78948FE384
S11301309CE90197F1F700C00000F9CF1F920F92DC
S11301400FB60F9211248F9382B38F5F82BB8F916E
S11101500F900FBE0F901F901895F894FFCFDC
S9030000FC
