S01C0000414D54495F4156525F496E746572666163696E672E73726563CC
S11300000C942A000C940F010C943C000C943C00BA
S11300100C943C000C943C000C943C000C943C006C
S11300200C943C000C943C000C943C000C943C005C
S11300300C943C000C943C000C943C000C943C004C
S11300400C943C000C943C000C943C000C943C003C
S11300500C943C0011241FBECFE5D8E0DEBFCDBF19
S113006020E0A0E6B0E001C01D92A136B207E1F79E
S11300700E94A8010C9402020C940000813079F0D3
S113008028F08230A9F08330E1F024C08AB3962F9F
S1130090909589236423682B6ABB81E01CC087B3D5
S11300A0962F909589236423682B67BB81E013C046
S11300B084B3962F909589236423682B64BB81E0D5
S11300C00AC081B3962F909589236423682B61BB62
S11300D081E001C080E000000895813049F028F0FB
S11300E0823049F0833051F00CC06BBB81E00AC010
S11300F068BB81E007C065BB81E004C062BB81E0EE
S113010001C080E000000895813031F138F0823080
S113011009F440C0833009F45AC076C041110DC0BF
S11301202BB381E090E002C0880F991F6A95E2F733
S1130130809582238BBB81E070C0413009F066C09A
S11301402BB381E090E002C0880F991F6A95E2F713
S1130150822B8BBB81E061C041110DC028B381E0CB
S113016090E002C0880F991F6A95E2F78095822378
S113017088BB81E052C0413009F04AC028B381E015
S113018090E002C0880F991F6A95E2F7822B88BB22
S113019081E043C041110DC025B381E090E002C06D
S11301A0880F991F6A95E2F78095822385BB81E0C9
S11301B034C0413079F525B381E090E002C0880F66
S11301C0991F6A95E2F7822B85BB81E026C0411115
S11301D00DC022B381E090E002C0880F991F6A9598
S11301E0E2F78095822382BB81E017C04130A1F4FD
S11301F022B381E090E002C0880F991F6A95E2F76C
S1130200822B82BB81E009C080E007C080E005C08A
S113021080E003C080E001C080E0000008951F92E8
S11302200F920FB60F9211248F9381E08093600098
S11302308F910F900FBE0F901F90189541E063E0CF
S113024081E00E9484008FE39CE90197F1F700C0EC
S1130250000040E063E081E00E9484000895CF93B1
S1130260C82F40E061E081E00E9484006BB38C2FD2
S1130270807F6F70682B80E00E946D000E941E01D9
S11302806BB320E1C29FC00111246F70682B80E022
S11302900E946D000E941E01CF9108954EE06EE011
S11302A081E00E943E0040EF60EF80E00E943E004B
S11302B083E30E942F0182E30E942F0188E20E94BF
S11302C02F018CE00E942F0186E00E942F0181E023
S11302D00E942F010895CF93C82F41E061E081E08F
S11302E00E9484006BB38C2F807F6F70682B80E03A
S11302F00E946D000E941E016BB320E1C29FC001E9
S113030011246F70682B80E00E946D000E941E0112
S1130310CF910895CF93DF93EC018881882331F046
S113032021960E946B0189918111FBCFDF91CF91BE
S11303300895813019F0823021F006C08FE7860FCE
S113034004C08FEB860F01C080E80E942F0108953E
S1130350CF93DF9300D000D0CDB7DEB719821A82D5
S11303601B821C820E944E01D198379A86B1876005
S113037086B93E9A3F98389A87B1817E87B9369A72
S1130380349BFECF04B185B110E0182B61E081E00D
S11303900E949901BE016F5F7F4F812F0E94DF0190
S11303A0CE0101960E948A01BE016F5F7F4F802FAC
S11303B00E94DF01CE0101960E948A01E0CFFB0179
S11303C0138299E2899F912D112492959F7020E3C5
S11303D0290F208324E6929F801911249DEC899F84
S11303E0912D112496959695969520E3290F2183B6
S11303F0990F292F220F220F920F891B805D828370
S10B040081E00895F894FFCF98
S9030000FC
