:100000000C942A000C9453010C943C000C943C007A
:100010000C943C000C943C000C943C000C943C0070
:100020000C943C000C94BD010C94AE010C94A40102
:100030000C943C000C943C000C943C000C943C0050
:100040000C943C000C943C000C943C000C943C0040
:100050000C943C0011241FBECFE5D8E0DEBFCDBF1D
:1000600020E0A0E6B0E001C01D92A136B207E1F7A2
:100070000E9462010C94E1010C940000813031F186
:1000800038F0823009F440C0833009F45AC076C099
:1000900041110DC02AB381E090E002C0880F991F82
:1000A0006A95E2F7809582238ABB81E0089541300A
:1000B00009F066C02AB381E090E002C0880F991F62
:1000C0006A95E2F7822B8ABB81E0089541110DC049
:1000D00027B381E090E002C0880F991F6A95E2F78C
:1000E0008095822387BB81E00895413009F04AC0A2
:1000F00027B381E090E002C0880F991F6A95E2F76C
:10010000822B87BB81E0089541110DC024B381E0AB
:1001100090E002C0880F991F6A95E2F780958223CC
:1001200084BB81E00895413079F524B381E090E00B
:1001300002C0880F991F6A95E2F7822B84BB81E089
:10014000089541110DC021B381E090E002C0880FF5
:10015000991F6A95E2F78095822381BB81E008951B
:100160004130A1F421B381E090E002C0880F991FD3
:100170006A95E2F7822B81BB81E0089580E00895C3
:1001800080E0089580E0089580E0089580E008957B
:10019000813031F138F0823009F440C0833009F405
:1001A0005AC076C041110DC02BB381E090E002C06F
:1001B000880F991F6A95E2F7809582238BBB81E0B7
:1001C00070C0413009F066C02BB381E090E002C0FE
:1001D000880F991F6A95E2F7822B8BBB81E061C083
:1001E00041110DC028B381E090E002C0880F991F33
:1001F0006A95E2F78095822388BB81E052C0413046
:1002000009F04AC028B381E090E002C0880F991F2E
:100210006A95E2F7822B88BB81E043C041110DC093
:1002200025B381E090E002C0880F991F6A95E2F73C
:100230008095822385BB81E034C0413079F525B3B8
:1002400081E090E002C0880F991F6A95E2F7822B47
:1002500085BB81E026C041110DC022B381E090E052
:1002600002C0880F991F6A95E2F78095822382BBAE
:1002700081E017C04130A1F422B381E090E002C0D8
:10028000880F991F6A95E2F7822B82BB81E009C033
:1002900080E007C080E005C080E003C080E001C0CE
:1002A00080E0000008951F920F920FB60F92112464
:1002B0008F9381E0809360008F910F900FBE0F901D
:1002C0001F90189541E063E082E00E943E0041E00B
:1002D00064E082E00E943E0041E064E083E00E942E
:1002E0003E0041E063E082E00E94C80040E064E03C
:1002F00082E00E94C8008FB581608FBD8FB58D7F71
:100300008FBD8EB588608EBD8EB58F7E8EBD8FB54C
:100310008F7E8FBD8FB580628FBD19BC80E888BD90
:100320008EB581608EBD8EB58D7F8EBD8EB584609D
:100330008EBD78942FEF89E698E12150804090405F
:10034000E1F700C00000F6CF1F920F920FB60F9298
:1003500011240F900FBE0F901F9018951F920F92AF
:100360000FB60F9211240F900FBE0F901F9018958B
:100370009BB381E089278BBB08951F920F920FB624
:100380000F9211242F933F934F935F936F937F931B
:100390008F939F93AF93BF93EF93FF930E94B80106
:1003A000FF91EF91BF91AF919F918F917F916F914D
:1003B0005F914F913F912F910F900FBE0F901F9023
:0603C0001895F894FFCF30
:00000001FF
