S01C0000414D54495F4156525F496E746572666163696E672E73726563CC
S11300000C942A000C9424020C943C000C943C00A4
S11300100C943C000C943C000C9409030C943C009C
S11300200C943C000C947E030C946F030C946503B5
S11300300C943C000C943C000C943C000C943C004C
S11300400C943C000C943C000C943C000C943C003C
S11300500C943C0011241FBECFE5D8E0DEBFCDBF19
S113006020E0A0E6B0E001C01D92A436B207E1F79B
S11300700E94BD020C94B6030C940000813031F14F
S113008038F0823009F440C0833009F45AC076C095
S113009041110DC02AB381E090E002C0880F991F7E
S11300A06A95E2F7809582238ABB81E00895413006
S11300B009F066C02AB381E090E002C0880F991F5E
S11300C06A95E2F7822B8ABB81E0089541110DC045
S11300D027B381E090E002C0880F991F6A95E2F788
S11300E08095822387BB81E00895413009F04AC09E
S11300F027B381E090E002C0880F991F6A95E2F768
S1130100822B87BB81E0089541110DC024B381E0A7
S113011090E002C0880F991F6A95E2F780958223C8
S113012084BB81E00895413079F524B381E090E007
S113013002C0880F991F6A95E2F7822B84BB81E085
S1130140089541110DC021B381E090E002C0880FF1
S1130150991F6A95E2F78095822381BB81E0089517
S11301604130A1F421B381E090E002C0880F991FCF
S11301706A95E2F7822B81BB81E0089580E00895BF
S113018080E0089580E0089580E0089580E0089577
S1130190813079F028F08230A9F08330E1F024C076
S11301A08AB3962F909589236423682B6ABB81E0D8
S11301B01CC087B3962F909589236423682B67BB53
S11301C081E013C084B3962F909589236423682B10
S11301D064BB81E00AC081B3962F90958923642380
S11301E0682B61BB81E001C080E00000089581308C
S11301F049F028F0823049F0833051F00CC06BBBD9
S113020081E00AC068BB81E007C065BB81E004C02F
S113021062BB81E001C080E000000895813031F1CB
S113022038F0823009F440C0833009F45AC076C0F3
S113023041110DC02BB381E090E002C0880F991FDB
S11302406A95E2F7809582238BBB81E070C04130D0
S113025009F066C02BB381E090E002C0880F991FBB
S11302606A95E2F7822B8BBB81E061C041110DC01E
S113027028B381E090E002C0880F991F6A95E2F7E5
S11302808095822388BB81E052C0413009F04AC086
S113029028B381E090E002C0880F991F6A95E2F7C5
S11302A0822B88BB81E043C041110DC025B381E09E
S11302B090E002C0880F991F6A95E2F78095822327
S11302C085BB81E034C0413079F525B381E090E00D
S11302D002C0880F991F6A95E2F7822B85BB81E0E3
S11302E026C041110DC022B381E090E002C0880F06
S11302F0991F6A95E2F78095822382BB81E017C03B
S11303004130A1F422B381E090E002C0880F991F2C
S11303106A95E2F7822B82BB81E009C080E007C0C6
S113032080E005C080E003C080E001C080E0000000
S11303300895813031F138F0823009F440C08330BF
S113034009F45AC076C041110DC02BB381E090E08E
S113035002C0880F991F6A95E2F7809582238BBBB0
S113036081E070C0413009F066C02BB381E090E0B9
S113037002C0880F991F6A95E2F7822B8BBB81E03C
S113038061C041110DC028B381E090E002C0880F24
S1130390991F6A95E2F78095822388BB81E052C059
S11303A0413009F04AC028B381E090E002C0880FD0
S11303B0991F6A95E2F7822B88BB81E043C0411103
S11303C00DC025B381E090E002C0880F991F6A95A3
S11303D0E2F78095822385BB81E034C0413079F512
S11303E025B381E090E002C0880F991F6A95E2F777
S11303F0822B85BB81E026C041110DC022B381E070
S113040090E002C0880F991F6A95E2F780958223D5
S113041082BB81E017C04130A1F422B381E090E0B7
S113042002C0880F991F6A95E2F7822B82BB81E094
S113043009C080E007C080E005C080E003C080E020
S113044001C080E0000008951F920F920FB60F9232
S113045011248F9381E0809360008F910F900FBEE1
S11304600F901F90189541E063E081E00E940E0117
S11304708FE39CE90197F1F700C0000040E063E0DE
S113048081E00E940E010895CF93C82F40E061E0FF
S113049081E00E940E016BB38C2F807F6F70682BFC
S11304A080E00E94F7000E9433026BB320E1C29FF8
S11304B0C00111246F70682B80E00E94F7000E9435
S11304C03302CF9108954EE06EE081E00E94C800AF
S11304D040EF60EF80E00E94C80083E30E94440282
S11304E082E30E94440288E20E9444028CE00E945B
S11304F0440286E00E94440281E00E94440208957E
S1130500CF93C82F41E061E081E00E940E016BB3FC
S11305108C2F807F6F70682B80E00E94F7000E9410
S113052033026BB320E1C29FC00111246F70682BAA
S113053080E00E94F7000E943302CF910895CF9388
S1130540DF93EC018881882331F021960E94800298
S113055089918111FBCFDF91CF910895813019F0FA
S1130560823021F006C08FE7860F04C08FEB860F20
S113057001C080E80E9444020895CF93DF9300D025
S113058000D000D0CDB7DEB70E94630240E066E041
S113059083E00E943E0041E066E083E00E9499010E
S11305A0FE01319686E0DF011D928A95E9F78FB549
S11305B08E7F8FBD8FB58D7F8FBD8EB5877F8EBDAE
S11305C08EB58F7E8EBD8EB581608EBD8EB58D7FCE
S11305D08EBD8EB584608EBD8EB580648EBD89B7A8
S11305E0806289BF78948091610080FDFCCF809106
S11305F0620090916300BE016F5F7F4F0E943703DA
S113060061E081E00E94AE02CE0101960E949F0249
S1130610EACF1F920F920FB60F9211242F933F939C
S11306208F939F938091610080FD07C086B597B535
S113063090936300809362000CC086B597B52091B7
S1130640620030916300821B930B9093630080934C
S11306506200809161008F5F809361009F918F9110
S11306603F912F910F900FBE0F901F9018951F93DD
S1130670CF93DF93FB011582EB01E4E0F0E011E09E
S113068030E03097D9F020E0612F732FAB01440F95
S1130690551F660F771F660F771F660F771F640F4E
S11306A0751F2F5F422F50E04E175F0778F30E94AB
S11306B0A203605D6993319720F702C0805D88834F
S11306C081E0DF91CF911F9108951F920F920FB691
S11306D00F9211240F900FBE0F901F9018951F9228
S11306E00F920FB60F9211240F900FBE0F901F9010
S11306F018959BB381E089278BBB08951F920F92B5
S11307000FB60F9211242F933F934F935F936F93E0
S11307107F938F939F93AF93BF93EF93FF930E9425
S11307207903FF91EF91BF91AF919F918F917F9149
S11307306F915F914F913F912F910F900FBE0F904A
S11307401F901895AA1BBB1B51E107C0AA1FBB1F12
S1130750A617B70710F0A61BB70B881F991F5A9549
S1130760A9F780959095BC01CD010895F894FFCF29
S9030000FC
