:100000000C942A000C942B010C9447000C9447008C
:100010000C9447000C9447000C9447000C94470044
:100020000C9447000C9465020C9456020C944C02FC
:100030000C943A020C9447000C9447000C9447002F
:100040000C9447000C9447000C9447000C94470014
:100050000C94470011241FBECFE5D8E0DEBFCDBF12
:1000600010E0A0E6B0E0E6E1F5E002C005900D92F8
:10007000A236B107D9F720E0A2E6B0E001C01D9298
:10008000A436B207E1F70E94B5010C9489020C94E2
:100090000000813079F028F08230A9F08330E1F05F
:1000A00024C08AB3962F909589236423682B6ABB5A
:1000B00081E01CC087B3962F909589236423682B19
:1000C00067BB81E013C084B3962F90958923642386
:1000D000682B64BB81E00AC081B3962F9095892379
:1000E0006423682B61BB81E001C080E000000895BB
:1000F000813049F028F0823049F0833051F00CC053
:100100006BBB81E00AC068BB81E007C065BB81E0D2
:1001100004C062BB81E001C080E00000089581302E
:1001200031F138F0823009F440C0833009F45AC00C
:1001300076C041110DC02BB381E090E002C0880F62
:10014000991F6A95E2F7809582238BBB81E070C08E
:10015000413009F066C02BB381E090E002C0880F07
:10016000991F6A95E2F7822B8BBB81E061C0411138
:100170000DC028B381E090E002C0880F991F6A95F6
:10018000E2F78095822388BB81E052C0413009F0BC
:100190004AC028B381E090E002C0880F991F6A9599
:1001A000E2F7822B88BB81E043C041110DC025B32B
:1001B00081E090E002C0880F991F6A95E2F7809570
:1001C000822385BB81E034C0413079F525B381E0DD
:1001D00090E002C0880F991F6A95E2F7822B85BBD9
:1001E00081E026C041110DC022B381E090E002C041
:1001F000880F991F6A95E2F78095822382BB81E080
:1002000017C04130A1F422B381E090E002C0880F12
:10021000991F6A95E2F7822B82BB81E009C080E0DA
:1002200007C080E005C080E003C080E001C080E03E
:1002300000000895E199FECF9FBB8EBB6DBBE29A93
:10024000E19A0895E199FECF9FBB8EBBE09A8DB3F2
:10025000FB01808308951F920F920FB60F92112415
:100260008F9381E0809362008F910F900FBE0F906B
:100270001F90189541E063E081E00E948F008FE3BA
:100280009CE90197F1F700C0000040E063E081E0E5
:100290000E948F000895CF93C82F40E061E081E075
:1002A0000E948F006BB38C2F807F6F70682B80E073
:1002B0000E9478000E943A016BB320E1C29FC00106
:1002C00011246F70682B80E00E9478000E943A0130
:1002D000CF9108954EE06EE081E00E94490040EF2A
:1002E00060EF80E00E94490083E30E944B0182E3BB
:1002F0000E944B0188E20E944B018CE00E944B015E
:1003000086E00E944B0181E00E944B010895CF934B
:10031000C82F41E061E081E00E948F006BB38C2F19
:10032000807F6F70682B80E00E9478000E943A0105
:100330006BB320E1C29FC00111246F70682B80E075
:100340000E9478000E943A01CF910895813019F0FF
:10035000823021F006C08FE7860F04C08FEB860F36
:1003600001C080E80E944B010895CF93DF931F9254
:10037000CDB7DEB719820E946A0168E480E090E0A0
:100380000E941A0165E481E090E00E941A016CE489
:1003900082E090E00E941A016CE483E090E00E9409
:1003A0001A016FE484E090E00E941A0161E081E0AC
:1003B0000E94A601BE016F5F7F4F80E090E00E9427
:1003C00022012FEF81EE94E0215080409040E1F730
:1003D00000C0000089810E948701BE016F5F7F4FCE
:1003E00081E090E00E9422012FEF81EE94E0215005
:1003F00080409040E1F700C0000089810E948701A1
:10040000BE016F5F7F4F82E090E00E9422012FEFDC
:1004100081EE94E0215080409040E1F700C0000060
:1004200089810E948701BE016F5F7F4F83E090E06A
:100430000E9422012FEF81EE94E0215080409040F5
:10044000E1F700C0000089810E948701BE016F5F53
:100450007F4F84E090E00E9422012FEF81EE94E034
:10046000215080409040E1F700C0000089810E9447
:100470008701FFCF1F920F920FB60F9211248F9317
:100480008FB180936300809160008FB98F910F903E
:100490000FBE0F901F9018951F920F920FB60F92DC
:1004A00011240F900FBE0F901F9018951F920F925E
:1004B0000FB60F9211240F900FBE0F901F9018953A
:1004C0009BB381E089278BBB08951F920F920FB6D3
:1004D0000F9211242F933F934F935F936F937F93CA
:1004E0008F939F93AF93BF93EF93FF930E9460020C
:1004F000FF91EF91BF91AF919F918F917F916F91FC
:100500005F914F913F912F910F900FBE0F901F90D1
:060510001895F894FFCFDE
:02051600BB0028
:00000001FF
