S01C0000414D54495F4156525F496E746572666163696E672E73726563CC
S11300000C942A000C94C8000C943C000C943C0002
S11300100C943C000C943C000C943C000C943C006C
S11300200C943C000C943C000C940A010C943C008D
S11300300C943C000C943C000C943C000C943C004C
S11300400C943C000C943C000C943C000C943C003C
S11300500C943C0011241FBECFE5D8E0DEBFCDBF19
S113006020E0A0E6B0E001C01D92A236B207E1F79D
S11300700E94E7000C941B010C940000813031F1C4
S113008038F0823009F440C0833009F45AC076C095
S113009041110DC02AB381E090E002C0880F991F7E
S11300A06A95E2F7809582238ABB81E00895413006
S11300B009F066C02AB381E090E002C0880F991F5E
S11300C06A95E2F7822B8ABB81E0089541110DC045
S11300D027B381E090E002C0880F991F6A95E2F788
S11300E08095822387BB81E00895413009F04AC09E
S11300F027B381E090E002C0880F991F6A95E2F768
S1130100822B87BB81E0089541110DC024B381E0A7
S113011090E002C0880F991F6A95E2F780958223C8
S113012084BB81E00895413079F524B381E090E007
S113013002C0880F991F6A95E2F7822B84BB81E085
S1130140089541110DC021B381E090E002C0880FF1
S1130150991F6A95E2F78095822381BB81E0089517
S11301604130A1F421B381E090E002C0880F991FCF
S11301706A95E2F7822B81BB81E0089580E00895BF
S113018080E0089580E0089580E0089580E0089577
S11301901F920F920FB60F9211248F9381E08093D8
S11301A060008F910F900FBE0F901F90189541E043
S11301B062E082E00E943E0041E067E082E00E944B
S11301C03E0041E063E083E00E943E0008950E9407
S11301D0D70012BE80E88CBF83B78F7B83BF83B701
S11301E0886083BF83B7816083BF83B78D7F83BFFC
S11301F083B7846083BF89B7826089BF789494E0B1
S1130200809161008D33E0F385B3892785BB10921B
S11302106100F6CF1F920F920FB60F9211248F93A5
S1130220809161008F5F809361008F910F900FBE6A
S10D02300F901F901895F894FFCF6B
S9030000FC
