S01C0000414D54495F4156525F496E746572666163696E672E73726563CC
S11300000C942A000C942F020C9447000C94470083
S11300100C9447000C9447000C9447000C94470040
S11300200C9447000C9456030C9447030C943D0322
S11300300C9412030C9447000C9447000C94470052
S11300400C9447000C9447000C9447000C94470010
S11300500C94470011241FBECFE5D8E0DEBFCDBF0E
S113006010E0A0E6B0E0E8EFF6E002C005900D92E3
S1130070A236B107D9F720E0A2E6B0E001C01D9294
S1130080A436B207E1F70E94C8020C947A030C94D8
S11300900000813031F138F0823009F440C08330FF
S11300A009F45AC076C041110DC02AB381E090E032
S11300B002C0880F991F6A95E2F7809582238ABB54
S11300C081E00895413009F066C02AB381E090E0F0
S11300D002C0880F991F6A95E2F7822B8ABB81E0E0
S11300E0089541110DC027B381E090E002C0880F4C
S11300F0991F6A95E2F78095822387BB81E0089572
S1130100413009F04AC027B381E090E002C0880F73
S1130110991F6A95E2F7822B87BB81E0089541110C
S11301200DC024B381E090E002C0880F991F6A9546
S1130130E2F78095822384BB81E00895413079F50C
S113014024B381E090E002C0880F991F6A95E2F71A
S1130150822B84BB81E0089541110DC021B381E05D
S113016090E002C0880F991F6A95E2F78095822378
S113017081BB81E008954130A1F421B381E090E096
S113018002C0880F991F6A95E2F7822B81BB81E038
S1130190089580E0089580E0089580E0089580E067
S11301A0089580E00895813079F028F08230A9F034
S11301B08330E1F024C08AB3962F90958923642379
S11301C0682B6ABB81E01CC087B3962F9095892366
S11301D06423682B67BB81E013C084B3962F90958A
S11301E089236423682B64BB81E00AC081B3962F02
S11301F0909589236423682B61BB81E001C080E072
S113020000000895813049F028F0823049F08330AD
S113021051F00CC06BBB81E00AC068BB81E007C031
S113022065BB81E004C062BB81E001C080E00000E6
S11302300895813031F138F0823009F440C08330C0
S113024009F45AC076C041110DC02BB381E090E08F
S113025002C0880F991F6A95E2F7809582238BBBB1
S113026081E070C0413009F066C02BB381E090E0BA
S113027002C0880F991F6A95E2F7822B8BBB81E03D
S113028061C041110DC028B381E090E002C0880F25
S1130290991F6A95E2F78095822388BB81E052C05A
S11302A0413009F04AC028B381E090E002C0880FD1
S11302B0991F6A95E2F7822B88BB81E043C0411104
S11302C00DC025B381E090E002C0880F991F6A95A4
S11302D0E2F78095822385BB81E034C0413079F513
S11302E025B381E090E002C0880F991F6A95E2F778
S11302F0822B85BB81E026C041110DC022B381E071
S113030090E002C0880F991F6A95E2F780958223D6
S113031082BB81E017C04130A1F422B381E090E0B8
S113032002C0880F991F6A95E2F7822B82BB81E095
S113033009C080E007C080E005C080E003C080E021
S113034001C080E000000895813031F138F082303E
S113035009F440C0833009F45AC076C041110DC07D
S11303602BB381E090E002C0880F991F6A95E2F7F1
S1130370809582238BBB81E070C0413009F066C058
S11303802BB381E090E002C0880F991F6A95E2F7D1
S1130390822B8BBB81E061C041110DC028B381E089
S11303A090E002C0880F991F6A95E2F78095822336
S11303B088BB81E052C0413009F04AC028B381E0D3
S11303C090E002C0880F991F6A95E2F7822B88BBE0
S11303D081E043C041110DC025B381E090E002C02B
S11303E0880F991F6A95E2F78095822385BB81E087
S11303F034C0413079F525B381E090E002C0880F24
S1130400991F6A95E2F7822B85BB81E026C04111D2
S11304100DC022B381E090E002C0880F991F6A9555
S1130420E2F78095822382BB81E017C04130A1F4BA
S113043022B381E090E002C0880F991F6A95E2F729
S1130440822B82BB81E009C080E007C080E005C048
S113045080E003C080E001C080E0000008951F92A6
S11304600F920FB60F9211248F9381E08093620054
S11304708F910F900FBE0F901F90189541E063E08D
S113048081E00E9419018FE39CE90197F1F700C014
S1130490000040E063E081E00E9419010895CF93D9
S11304A0C82F40E061E081E00E9419016BB38C2FFA
S11304B0807F6F70682B80E00E9402010E943E02E0
S11304C06BB320E1C29FC00111246F70682B80E0E0
S11304D00E9402010E943E02CF9108954EE06EE018
S11304E081E00E94D30040EF60EF80E00E94D300DF
S11304F083E30E944F0282E30E944F0288E20E943B
S11305004F028CE00E944F0286E00E944F0281E07D
S11305100E944F020895CF93C82F41E061E081E02B
S11305200E9419016BB38C2F807F6F70682B80E061
S11305300E9402010E943E026BB320E1C29FC001EF
S113054011246F70682B80E00E9402010E943E0219
S1130550CF910895CF93DF93EC018881882331F004
S113056021960E948B0289918111FBCFDF91CF915B
S11305700895813019F0823021F006C08FE7860F8C
S113058004C08FEB860F01C080E80E944F020895DB
S1130590CF93DF9300D01F92CDB7DEB70E946E02D7
S11305A00E94F40219821A821B82789461E081E02D
S11305B00E94B902BE016F5F7F4F809163000E9469
S11305C02403809160008F5F80936000CE010196C8
S11305D00E94AA022FEF89E698E1215080409040C2
S11305E0E1F700C00000E2CF40E065E081E00E9456
S11305F0490041E066E081E00E94490040E067E094
S113060081E00E94490040E064E081E00E944900EA
S113061041E064E081E00E94A40180EC8DB91FB840
S113062081E008951F920F920FB60F9211248F93B9
S11306308FB180936300809160008FB98F910F9088
S11306400FBE0F901F901895FB011282982F9F7078
S1130650292F30E02A3031051CF0995C918302C0C7
S1130660905D918382958F708A3018F0895C8083C5
S113067002C0805D808381E008951F920F920FB6BF
S11306800F9211240F900FBE0F901F9018951F9278
S11306900F920FB60F9211240F900FBE0F901F9060
S11306A018959BB381E089278BBB08951F920F9205
S11306B00FB60F9211242F933F934F935F936F9331
S11306C07F938F939F93AF93BF93EF93FF930E9476
S11306D05103FF91EF91BF91AF919F918F917F91C2
S11306E06F915F914F913F912F910F900FBE0F909B
S10B06F01F901895F894FFCF48
S10506F8BB0041
S9030000FC
