:100000000C942A000C943E000C943C000C943C0090
:100010000C943C000C943C000C943C000C943C0070
:100020000C943C000C943C000C943C000C943C0060
:100030000C943C000C943C000C943C000C943C0050
:100040000C943C000C943C000C943C000C943C0040
:100050000C943C0011241FBECFE5D8E0DEBFCDBF1D
:1000600020E0A0E6B0E001C01D92A136B207E1F7A2
:100070000E944D000C946A000C9400001F920F9295
:100080000FB60F9211248F9381E0809360008F91BF
:100090000F900FBE0F901F90189585B7836085BF96
:1000A0008A988B9A8BB780648BBF789498E0809104
:1000B00060008130E1F71092600082B3892782BB33
:1000C0002FEF39E688E1215030408040E1F700C051
:0800D0000000EDCFF894FFCF12
:00000001FF
